:100000000C9469000C9491000C9491000C94910054
:100010000C9491000C9491000C9491000C9491001C
:100020000C9491000C9491000C9491000C9491000C
:100030000C9491000C9491000C9491000C949100FC
:100040000C9402020C9491000C94D0010C94AA011F
:100050000C9491000C9491000C9491000C949100DC
:100060000C9491000C949100D603DE03BA04FE03B5
:10007000090459046D0400000000250028002B002D
:1000800000000000240027002A00000000002300D8
:1000900026002900040404040404040402020202E9
:1000A000020203030303030301020408102040803B
:1000B00001020408102001020408102000000008BA
:1000C000000201000003040700000000000000001F
:1000D0004C0211241FBECFEFD8E0DEBFCDBF11E030
:1000E000A0E0B1E0E2E3FAE002C005900D92A03595
:1000F000B107D9F722E0A0E5B1E001C01D92A73019
:10010000B207E1F710E0C9E6D0E004C02197FE0194
:100110000E940C05C836D107C9F70E9493020C94BF
:1001200017050C940000CF92DF92EF92FF920F938D
:100130001F93CF93DF936C017A018B01C0E0D0E075
:10014000CE15DF0589F0D8016D918D01D601ED91B5
:10015000FC910190F081E02DC6010995892B11F4E5
:100160007E0102C02196ECCFC701DF91CF911F9194
:100170000F91FF90EF90DF90CF900895FC01918D4B
:10018000828D981761F0828DDF01A80FB11D5D96F9
:100190008C91928D9F5F9F73928F90E008958FEF67
:1001A0009FEF0895FC01918D828D981731F0828D1B
:1001B000E80FF11D858D90E008958FEF9FEF089572
:1001C000FC01918D228D892F90E0805C9F4F821BD6
:1001D00091098F739927089589E591E00E94E000C5
:1001E00021E0892B09F420E0822F0895FC01848D01
:1001F000DF01A80FB11DA35ABF4F2C91848D90E051
:1002000001968F739927848FA689B7892C93A0892B
:10021000B1898C9180648C93938D848D981306C0E2
:100220000288F389E02D80818F7D80830895EF928D
:10023000FF920F931F93CF93DF93EC0181E0888FA0
:100240009B8D8C8D981305C0E889F989808185FD87
:1002500024C0F62E0B8D10E00F5F1F4F0F73112778
:10026000E02E8C8DE8120CC00FB607FCFACFE8899F
:10027000F989808185FFF5CFCE010E94F600F1CF8C
:100280008B8DFE01E80FF11DE35AFF4FF0820B8FBB
:10029000EA89FB898081806207C0EE89FF896083DB
:1002A000E889F98980818064808381E090E0DF9132
:1002B000CF911F910F91FF90EF900895CF93DF930F
:1002C000EC01888D8823C9F0EA89FB89808185FD4E
:1002D00005C0A889B9898C9186FD0FC00FB607FCAF
:1002E000F5CF808185FFF2CFA889B9898C9185FFF0
:1002F000EDCFCE010E94F600E7CFDF91CF910895B8
:1003000080E090E0892B29F00E94EC0081110C9490
:10031000000008952FB7F89460915501709156012F
:1003200080915701909158012FBF0895009769F06F
:10033000FC0101900020E9F73197AF01481B590BF0
:10034000BC0189E591E00C94930080E090E0089571
:100350000E9412051F920F920FB60F9211242F9335
:100360003F934F935F936F937F938F939F93AF933D
:10037000BF93EF93FF9389E591E00E94F600FF9110
:10038000EF91BF91AF919F918F917F916F915F910D
:100390004F913F912F910F900FBE0F901F90189586
:1003A0001F920F920FB60F9211242F938F939F934A
:1003B000EF93FF93E0916901F0916A018081E091F0
:1003C0006F01F091700182FD12C0908180917201E5
:1003D0008F5F8F7320917301821751F0E09172014A
:1003E000F0E0E75AFE4F958F8093720101C0808143
:1003F000FF91EF919F918F912F910F900FBE0F90D2
:100400001F9018951F920F920FB60F9211242F93E1
:100410003F938F939F93AF93BF938091550190919A
:100420005601A0915701B09158013091540123E039
:10043000230F2D3720F40196A11DB11D05C026E81C
:10044000230F0296A11DB11D2093540180935501E5
:1004500090935601A0935701B09358018091500199
:1004600090915101A0915201B09153010196A11DAB
:10047000B11D8093500190935101A0935201B0930C
:100480005301BF91AF919F918F913F912F910F9009
:100490000FBE0F901F901895E9E5F1E013821282CC
:1004A00088EE93E0A0E0B0E084839583A683B783D1
:1004B00084E091E09183808385EC90E09587848748
:1004C00084EC90E09787868780EC90E0918B808B1E
:1004D00081EC90E0938B828B82EC90E0958B848B07
:1004E00086EC90E0978B868B118E128E138E148E75
:1004F000E6EFF1E082E0808311821382128282E3D0
:1005000090E0928781878AEF90E094878387808547
:1005100022EC31E0368725872AE832E0308B2787C6
:10052000876080870895CF93DF9300D0CDB7DEB783
:10053000789484B5826084BD84B5816084BD85B5BE
:10054000826085BD85B5816085BD80916E008160CA
:1005500080936E0010928100809181008260809370
:100560008100809181008160809381008091800072
:100570008160809380008091B10084608093B1009D
:100580008091B00081608093B00080917A00846097
:1005900080937A0080917A00826080937A008091C3
:1005A0007A00816080937A0080917A0080688093DD
:1005B0007A001092C100E0916901F0916A0182E035
:1005C0008083E0916901F0916A011082E0916501F8
:1005D000F09166011082E0916701F091680180E17D
:1005E000808310927101E0916D01F0916E0186E0BF
:1005F0008083E0916B01F0916C0180818061808348
:10060000E0916B01F0916C01808188608083E091C2
:100610006B01F0916C01808180688083E0916B01B7
:10062000F0916C0180818F7D808380E191E00E9458
:1006300096019091F7018091F601911124C090E00C
:10064000FC01E855FF4F2491FC01EC56FF4F8491CB
:10065000882309F43CC090E0880F991FFC01E05802
:10066000FF4F45915491FC01EA58FF4FA591B49179
:100670009FB7F894FA013081822F8095832380837D
:10068000EC91E22B22C090E0FC01E855FF4F249151
:10069000FC01EC56FF4F84918823C9F090E0880F4D
:1006A000991FFC01E058FF4F45915491FC01EA5815
:1006B000FF4FA591B4919FB7F894FA0180812095DE
:1006C000822380838C91E22FE823EC939FBF01E08B
:1006D00010E032E0E32EF12C43E0C42ED12C55E0A3
:1006E000A52EB12C64E0862E912C8091F60190E02D
:1006F000FC01E454FF4F2491FC01E855FF4F349175
:10070000FC01EC56FF4FE491EE23C9F1222339F1AD
:10071000233091F038F42130A9F0223001F584B56E
:100720008F7D12C0273091F02830A1F02430B9F429
:10073000809180008F7D03C0809180008F778093AF
:1007400080000DC084B58F7784BD09C08091B00052
:100750008F7703C08091B0008F7D8093B000F0E070
:10076000EE0FFF1FE657FF4FA591B491EC913E238A
:1007700041E020E009F440E0842F922F02C080E0A5
:1007800090E02091F70130E077247394821793076B
:1007900009F0712CE091F801F091F901E730F105D1
:1007A00008F020C1EC5CFF4F0C940C05772009F495
:1007B000DEC01093F9010093F801CFC00E948A01B6
:1007C0002091FA013091FB014091FC015091FD0113
:1007D0001B012C01221A330A440A550A8091FF0199
:1007E00090910002A0E0B0E0281639064A065B06A8
:1007F00008F4BDC0D092F901C092F80171102CC06C
:100800008091FE0182FF23C09092F9018092F8014D
:10081000AEC071109EC00E948A014090FA015090B3
:10082000FB016090FC017090FD01AB01BC0144191B
:100830005509660977098091010290910202A0E0B2
:10084000B0E0481759076A077B0708F490C0109278
:10085000F9011092F8017AC00E948A014090FA01D1
:100860005090FB016090FC017090FD01AB01BC0158
:100870004419550966097709809103029091040291
:10088000A0E0B0E0481759076A077B0708F46FC07B
:100890008091FE01837029F0B092F901A092F801D5
:1008A00066C097E0492E512C5092F9014092F80110
:1008B0004DC08091FE01772011F080FD15C081FDB3
:1008C00003C021E030E002C023E030E087E090E0A8
:1008D0009093F9018093F80189C0711005C01092BE
:1008E000F9011092F80143C00E948A014090FA0178
:1008F0005090FB016090FC017090FD01AB01BC01C8
:1009000044195509660977098091050290910602FC
:10091000A0E0B0E0481759076A077B0740F18091D3
:10092000FE0180FD03C087E090E002C086E090E019
:100930009093F9018093F8010E948A016093FA0173
:100940007093FB018093FC019093FD0121E030E066
:100950004DC0F092F901E092F8010E948A01609383
:10096000FA017093FB018093FC019093FD0120E05C
:1009700030E03CC00E948A012091FA013091FB01D5
:100980004091FC015091FD011B012C01221A330AF8
:10099000440A550A8091FF0190910002A0E0B0E066
:1009A000281639064A065B0610F3711003C021E0D1
:1009B00030E002C022E030E029833A830E948A01BD
:1009C0006093FA017093FB018093FC019093FD0109
:1009D00087E0482E512C5092F9014092F80129816C
:1009E0003A8104C0772009F47ACFC1CF2230310593
:1009F00049F02330310549F02130310551F488E2C6
:100A000091E005C086E391E002C084E491E00E9499
:100A100096010E94800169CEEE0FFF1F0590F491B0
:100A2000E02D099481E090E0F8940C941705F89477
:020A3000FFCFF6
:100A32000000000017019300E000BE00D2005E013A
:100A42000A5B4D445F4B657953776974636820652F
:100A520078616D706C655D000A53494E474C4520C4
:100A62005052455353000A444F55424C4520505270
:100A7200455353000A4C4F4E4720505245535300A2
:00000001FF
